{
    "EOF1_ContractCalls" : {
        "_info" : {
            "comment" : "",
            "filling-rpc-server" : "evm version 1.10.4-unstable-e2c88940-20210525",
            "filling-tool-version" : "retesteth-0.1.1-eip1559+commit.5ad217c6.Linux.g++",
            "lllcversion" : "Version: 0.5.14-develop.2021.4.29+commit.14c9d5de.Linux.clang",
            "source" : "src/GeneralStateTestsFiller/stCallCodes/EOF1_ContractCallsFiller.yml",
            "sourceHash" : "fa4525c939e1f7a1b298b4eee0a0810546485315cd12214c3af7c863e4de2f65"
        },
        "env" : {
            "currentCoinbase" : "0x2adc25665018aa1fe0e6bc666dac8fc2697ff9ba",
            "currentDifficulty" : "0x020000",
            "currentNumber" : "0x01",
            "currentTimestamp" : "0x03e8",
            "previousHash" : "0x5e20a0453cecd065ea59c37ac63e079ee08998b6045136a8ce6635c7912ec0b6",
            "currentGasLimit" : "0x05500000",
            "currentBaseFee" : "0x0a"
        },
        "post" : {
            "Berlin" : [
                {
                    "indexes" : {
                        "data" : 0,
                        "gas" : 0,
                        "value" : 0
                    },
                    "hash" : "0xd3ac00d647123269f508aa529829458de92e6defe757ae74b7ba741d317082f7",
                    "txbytes" : "0xf874800a830aae6094b94f5374fce5edbc8e2a8697c15331677e6ebf0b8094c94f5374fce5edbc8e2a8697c15331677e6ebf0b1ba00f2fcdd4b12c82b225c6fa285c8bb5ec12173696d7e4dbca308a32dae03f2a8fa036144afe01bd2cba73e7afe4cefaeb5051f19c07cc4d81a508bdb50cfcd5451d",
                    "logs" : "0x1dcc4de8dec75d7aab85b567b6ccd41ad312451b948a7413f0a142fd40d49347"
                },
                {
                    "indexes" : {
                        "data" : 1,
                        "gas" : 0,
                        "value" : 0
                    },
                    "hash" : "0xd3ac00d647123269f508aa529829458de92e6defe757ae74b7ba741d317082f7",
                    "txbytes" : "0xf874800a830aae6094b94f5374fce5edbc8e2a8697c15331677e6ebf0b8094d94f5374fce5edbc8e2a8697c15331677e6ebf0b1ba0bbdf9288646d44d3c72bb330001f8fee4d4f89981a89ab4890bf99efd34fe019a06738f208dc53a57ec8d4924be148cb3242f8b85bbb468a02227b708ae8c3d79a",
                    "logs" : "0x1dcc4de8dec75d7aab85b567b6ccd41ad312451b948a7413f0a142fd40d49347"
                }
            ],
            "Byzantium" : [
                {
                    "indexes" : {
                        "data" : 0,
                        "gas" : 0,
                        "value" : 0
                    },
                    "hash" : "0x35dc1ae64aa3dbdf093efbf65b5205638bc1c6f7b55b3df33f98f755c6abfec2",
                    "txbytes" : "0xf874800a830aae6094b94f5374fce5edbc8e2a8697c15331677e6ebf0b8094c94f5374fce5edbc8e2a8697c15331677e6ebf0b1ba00f2fcdd4b12c82b225c6fa285c8bb5ec12173696d7e4dbca308a32dae03f2a8fa036144afe01bd2cba73e7afe4cefaeb5051f19c07cc4d81a508bdb50cfcd5451d",
                    "logs" : "0x1dcc4de8dec75d7aab85b567b6ccd41ad312451b948a7413f0a142fd40d49347"
                },
                {
                    "indexes" : {
                        "data" : 1,
                        "gas" : 0,
                        "value" : 0
                    },
                    "hash" : "0x35dc1ae64aa3dbdf093efbf65b5205638bc1c6f7b55b3df33f98f755c6abfec2",
                    "txbytes" : "0xf874800a830aae6094b94f5374fce5edbc8e2a8697c15331677e6ebf0b8094d94f5374fce5edbc8e2a8697c15331677e6ebf0b1ba0bbdf9288646d44d3c72bb330001f8fee4d4f89981a89ab4890bf99efd34fe019a06738f208dc53a57ec8d4924be148cb3242f8b85bbb468a02227b708ae8c3d79a",
                    "logs" : "0x1dcc4de8dec75d7aab85b567b6ccd41ad312451b948a7413f0a142fd40d49347"
                }
            ],
            "Constantinople" : [
                {
                    "indexes" : {
                        "data" : 0,
                        "gas" : 0,
                        "value" : 0
                    },
                    "hash" : "0x00e27e64732361e4ae89330d80dfdba723ee6c9e3a5d7bdbc81a25806283bd6f",
                    "txbytes" : "0xf874800a830aae6094b94f5374fce5edbc8e2a8697c15331677e6ebf0b8094c94f5374fce5edbc8e2a8697c15331677e6ebf0b1ba00f2fcdd4b12c82b225c6fa285c8bb5ec12173696d7e4dbca308a32dae03f2a8fa036144afe01bd2cba73e7afe4cefaeb5051f19c07cc4d81a508bdb50cfcd5451d",
                    "logs" : "0x1dcc4de8dec75d7aab85b567b6ccd41ad312451b948a7413f0a142fd40d49347"
                },
                {
                    "indexes" : {
                        "data" : 1,
                        "gas" : 0,
                        "value" : 0
                    },
                    "hash" : "0x00e27e64732361e4ae89330d80dfdba723ee6c9e3a5d7bdbc81a25806283bd6f",
                    "txbytes" : "0xf874800a830aae6094b94f5374fce5edbc8e2a8697c15331677e6ebf0b8094d94f5374fce5edbc8e2a8697c15331677e6ebf0b1ba0bbdf9288646d44d3c72bb330001f8fee4d4f89981a89ab4890bf99efd34fe019a06738f208dc53a57ec8d4924be148cb3242f8b85bbb468a02227b708ae8c3d79a",
                    "logs" : "0x1dcc4de8dec75d7aab85b567b6ccd41ad312451b948a7413f0a142fd40d49347"
                }
            ],
            "ConstantinopleFix" : [
                {
                    "indexes" : {
                        "data" : 0,
                        "gas" : 0,
                        "value" : 0
                    },
                    "hash" : "0x44dd628711fc0a5b316a53e7f6fe470dbf83645af6f6e688227c70b658a6a6f6",
                    "txbytes" : "0xf874800a830aae6094b94f5374fce5edbc8e2a8697c15331677e6ebf0b8094c94f5374fce5edbc8e2a8697c15331677e6ebf0b1ba00f2fcdd4b12c82b225c6fa285c8bb5ec12173696d7e4dbca308a32dae03f2a8fa036144afe01bd2cba73e7afe4cefaeb5051f19c07cc4d81a508bdb50cfcd5451d",
                    "logs" : "0x1dcc4de8dec75d7aab85b567b6ccd41ad312451b948a7413f0a142fd40d49347"
                },
                {
                    "indexes" : {
                        "data" : 1,
                        "gas" : 0,
                        "value" : 0
                    },
                    "hash" : "0x44dd628711fc0a5b316a53e7f6fe470dbf83645af6f6e688227c70b658a6a6f6",
                    "txbytes" : "0xf874800a830aae6094b94f5374fce5edbc8e2a8697c15331677e6ebf0b8094d94f5374fce5edbc8e2a8697c15331677e6ebf0b1ba0bbdf9288646d44d3c72bb330001f8fee4d4f89981a89ab4890bf99efd34fe019a06738f208dc53a57ec8d4924be148cb3242f8b85bbb468a02227b708ae8c3d79a",
                    "logs" : "0x1dcc4de8dec75d7aab85b567b6ccd41ad312451b948a7413f0a142fd40d49347"
                }
            ],
            "EIP150" : [
                {
                    "indexes" : {
                        "data" : 0,
                        "gas" : 0,
                        "value" : 0
                    },
                    "hash" : "0x35dc1ae64aa3dbdf093efbf65b5205638bc1c6f7b55b3df33f98f755c6abfec2",
                    "txbytes" : "0xf874800a830aae6094b94f5374fce5edbc8e2a8697c15331677e6ebf0b8094c94f5374fce5edbc8e2a8697c15331677e6ebf0b1ba00f2fcdd4b12c82b225c6fa285c8bb5ec12173696d7e4dbca308a32dae03f2a8fa036144afe01bd2cba73e7afe4cefaeb5051f19c07cc4d81a508bdb50cfcd5451d",
                    "logs" : "0x1dcc4de8dec75d7aab85b567b6ccd41ad312451b948a7413f0a142fd40d49347"
                },
                {
                    "indexes" : {
                        "data" : 1,
                        "gas" : 0,
                        "value" : 0
                    },
                    "hash" : "0x35dc1ae64aa3dbdf093efbf65b5205638bc1c6f7b55b3df33f98f755c6abfec2",
                    "txbytes" : "0xf874800a830aae6094b94f5374fce5edbc8e2a8697c15331677e6ebf0b8094d94f5374fce5edbc8e2a8697c15331677e6ebf0b1ba0bbdf9288646d44d3c72bb330001f8fee4d4f89981a89ab4890bf99efd34fe019a06738f208dc53a57ec8d4924be148cb3242f8b85bbb468a02227b708ae8c3d79a",
                    "logs" : "0x1dcc4de8dec75d7aab85b567b6ccd41ad312451b948a7413f0a142fd40d49347"
                }
            ],
            "EIP158" : [
                {
                    "indexes" : {
                        "data" : 0,
                        "gas" : 0,
                        "value" : 0
                    },
                    "hash" : "0x35dc1ae64aa3dbdf093efbf65b5205638bc1c6f7b55b3df33f98f755c6abfec2",
                    "txbytes" : "0xf874800a830aae6094b94f5374fce5edbc8e2a8697c15331677e6ebf0b8094c94f5374fce5edbc8e2a8697c15331677e6ebf0b1ba00f2fcdd4b12c82b225c6fa285c8bb5ec12173696d7e4dbca308a32dae03f2a8fa036144afe01bd2cba73e7afe4cefaeb5051f19c07cc4d81a508bdb50cfcd5451d",
                    "logs" : "0x1dcc4de8dec75d7aab85b567b6ccd41ad312451b948a7413f0a142fd40d49347"
                },
                {
                    "indexes" : {
                        "data" : 1,
                        "gas" : 0,
                        "value" : 0
                    },
                    "hash" : "0x35dc1ae64aa3dbdf093efbf65b5205638bc1c6f7b55b3df33f98f755c6abfec2",
                    "txbytes" : "0xf874800a830aae6094b94f5374fce5edbc8e2a8697c15331677e6ebf0b8094d94f5374fce5edbc8e2a8697c15331677e6ebf0b1ba0bbdf9288646d44d3c72bb330001f8fee4d4f89981a89ab4890bf99efd34fe019a06738f208dc53a57ec8d4924be148cb3242f8b85bbb468a02227b708ae8c3d79a",
                    "logs" : "0x1dcc4de8dec75d7aab85b567b6ccd41ad312451b948a7413f0a142fd40d49347"
                }
            ],
            "Frontier" : [
                {
                    "indexes" : {
                        "data" : 0,
                        "gas" : 0,
                        "value" : 0
                    },
                    "hash" : "0x35dc1ae64aa3dbdf093efbf65b5205638bc1c6f7b55b3df33f98f755c6abfec2",
                    "txbytes" : "0xf874800a830aae6094b94f5374fce5edbc8e2a8697c15331677e6ebf0b8094c94f5374fce5edbc8e2a8697c15331677e6ebf0b1ba00f2fcdd4b12c82b225c6fa285c8bb5ec12173696d7e4dbca308a32dae03f2a8fa036144afe01bd2cba73e7afe4cefaeb5051f19c07cc4d81a508bdb50cfcd5451d",
                    "logs" : "0x1dcc4de8dec75d7aab85b567b6ccd41ad312451b948a7413f0a142fd40d49347"
                },
                {
                    "indexes" : {
                        "data" : 1,
                        "gas" : 0,
                        "value" : 0
                    },
                    "hash" : "0x35dc1ae64aa3dbdf093efbf65b5205638bc1c6f7b55b3df33f98f755c6abfec2",
                    "txbytes" : "0xf874800a830aae6094b94f5374fce5edbc8e2a8697c15331677e6ebf0b8094d94f5374fce5edbc8e2a8697c15331677e6ebf0b1ba0bbdf9288646d44d3c72bb330001f8fee4d4f89981a89ab4890bf99efd34fe019a06738f208dc53a57ec8d4924be148cb3242f8b85bbb468a02227b708ae8c3d79a",
                    "logs" : "0x1dcc4de8dec75d7aab85b567b6ccd41ad312451b948a7413f0a142fd40d49347"
                }
            ],
            "Homestead" : [
                {
                    "indexes" : {
                        "data" : 0,
                        "gas" : 0,
                        "value" : 0
                    },
                    "hash" : "0x35dc1ae64aa3dbdf093efbf65b5205638bc1c6f7b55b3df33f98f755c6abfec2",
                    "txbytes" : "0xf874800a830aae6094b94f5374fce5edbc8e2a8697c15331677e6ebf0b8094c94f5374fce5edbc8e2a8697c15331677e6ebf0b1ba00f2fcdd4b12c82b225c6fa285c8bb5ec12173696d7e4dbca308a32dae03f2a8fa036144afe01bd2cba73e7afe4cefaeb5051f19c07cc4d81a508bdb50cfcd5451d",
                    "logs" : "0x1dcc4de8dec75d7aab85b567b6ccd41ad312451b948a7413f0a142fd40d49347"
                },
                {
                    "indexes" : {
                        "data" : 1,
                        "gas" : 0,
                        "value" : 0
                    },
                    "hash" : "0x35dc1ae64aa3dbdf093efbf65b5205638bc1c6f7b55b3df33f98f755c6abfec2",
                    "txbytes" : "0xf874800a830aae6094b94f5374fce5edbc8e2a8697c15331677e6ebf0b8094d94f5374fce5edbc8e2a8697c15331677e6ebf0b1ba0bbdf9288646d44d3c72bb330001f8fee4d4f89981a89ab4890bf99efd34fe019a06738f208dc53a57ec8d4924be148cb3242f8b85bbb468a02227b708ae8c3d79a",
                    "logs" : "0x1dcc4de8dec75d7aab85b567b6ccd41ad312451b948a7413f0a142fd40d49347"
                }
            ],
            "Istanbul" : [
                {
                    "indexes" : {
                        "data" : 0,
                        "gas" : 0,
                        "value" : 0
                    },
                    "hash" : "0xcad8415d4cc0a96c985d58be4de8613e5b5dafcd34f97e3e4818922ad376f9e3",
                    "txbytes" : "0xf874800a830aae6094b94f5374fce5edbc8e2a8697c15331677e6ebf0b8094c94f5374fce5edbc8e2a8697c15331677e6ebf0b1ba00f2fcdd4b12c82b225c6fa285c8bb5ec12173696d7e4dbca308a32dae03f2a8fa036144afe01bd2cba73e7afe4cefaeb5051f19c07cc4d81a508bdb50cfcd5451d",
                    "logs" : "0x1dcc4de8dec75d7aab85b567b6ccd41ad312451b948a7413f0a142fd40d49347"
                },
                {
                    "indexes" : {
                        "data" : 1,
                        "gas" : 0,
                        "value" : 0
                    },
                    "hash" : "0xcad8415d4cc0a96c985d58be4de8613e5b5dafcd34f97e3e4818922ad376f9e3",
                    "txbytes" : "0xf874800a830aae6094b94f5374fce5edbc8e2a8697c15331677e6ebf0b8094d94f5374fce5edbc8e2a8697c15331677e6ebf0b1ba0bbdf9288646d44d3c72bb330001f8fee4d4f89981a89ab4890bf99efd34fe019a06738f208dc53a57ec8d4924be148cb3242f8b85bbb468a02227b708ae8c3d79a",
                    "logs" : "0x1dcc4de8dec75d7aab85b567b6ccd41ad312451b948a7413f0a142fd40d49347"
                }
            ],
            "London" : [
                {
                    "indexes" : {
                        "data" : 0,
                        "gas" : 0,
                        "value" : 0
                    },
                    "hash" : "0x036410d8e64c32e90705eaa2b83586312884e774e6ec611ccb6c19583e126a1b",
                    "txbytes" : "0xf874800a830aae6094b94f5374fce5edbc8e2a8697c15331677e6ebf0b8094c94f5374fce5edbc8e2a8697c15331677e6ebf0b1ba00f2fcdd4b12c82b225c6fa285c8bb5ec12173696d7e4dbca308a32dae03f2a8fa036144afe01bd2cba73e7afe4cefaeb5051f19c07cc4d81a508bdb50cfcd5451d",
                    "logs" : "0x1dcc4de8dec75d7aab85b567b6ccd41ad312451b948a7413f0a142fd40d49347"
                },
                {
                    "indexes" : {
                        "data" : 1,
                        "gas" : 0,
                        "value" : 0
                    },
                    "hash" : "0x036410d8e64c32e90705eaa2b83586312884e774e6ec611ccb6c19583e126a1b",
                    "txbytes" : "0xf874800a830aae6094b94f5374fce5edbc8e2a8697c15331677e6ebf0b8094d94f5374fce5edbc8e2a8697c15331677e6ebf0b1ba0bbdf9288646d44d3c72bb330001f8fee4d4f89981a89ab4890bf99efd34fe019a06738f208dc53a57ec8d4924be148cb3242f8b85bbb468a02227b708ae8c3d79a",
                    "logs" : "0x1dcc4de8dec75d7aab85b567b6ccd41ad312451b948a7413f0a142fd40d49347"
                }
            ],
            "London+3540" : [
                {
                    "indexes" : {
                        "data" : 0,
                        "gas" : 0,
                        "value" : 0
                    },
                    "hash" : "0x20a92f930670eb7086e138d9f8a287f865303e64a1af56c05e73c9fe2d5498a7",
                    "txbytes" : "0xf874800a830aae6094b94f5374fce5edbc8e2a8697c15331677e6ebf0b8094c94f5374fce5edbc8e2a8697c15331677e6ebf0b1ba00f2fcdd4b12c82b225c6fa285c8bb5ec12173696d7e4dbca308a32dae03f2a8fa036144afe01bd2cba73e7afe4cefaeb5051f19c07cc4d81a508bdb50cfcd5451d",
                    "logs" : "0x1dcc4de8dec75d7aab85b567b6ccd41ad312451b948a7413f0a142fd40d49347"
                },
                {
                    "indexes" : {
                        "data" : 1,
                        "gas" : 0,
                        "value" : 0
                    },
                    "hash" : "0x659f35c7e3981e31bcbef696aa6321ad153f217230af9730c07cde323651d2f9",
                    "txbytes" : "0xf874800a830aae6094b94f5374fce5edbc8e2a8697c15331677e6ebf0b8094d94f5374fce5edbc8e2a8697c15331677e6ebf0b1ba0bbdf9288646d44d3c72bb330001f8fee4d4f89981a89ab4890bf99efd34fe019a06738f208dc53a57ec8d4924be148cb3242f8b85bbb468a02227b708ae8c3d79a",
                    "logs" : "0x1dcc4de8dec75d7aab85b567b6ccd41ad312451b948a7413f0a142fd40d49347"
                }
            ]
        },
        "pre" : {
            "0xa94f5374fce5edbc8e2a8697c15331677e6ebf0b" : {
                "balance" : "0x989680",
                "code" : "0x",
                "nonce" : "0x00",
                "storage" : {
                }
            },
            "0xb94f5374fce5edbc8e2a8697c15331677e6ebf0b" : {
                "balance" : "0x00",
                "code" : "0x6000600060006000600060003560601c620186a0f1600055",
                "nonce" : "0x00",
                "storage" : {
                }
            },
            "0xc94f5374fce5edbc8e2a8697c15331677e6ebf0b" : {
                "balance" : "0x00",
                "code" : "0xefcafe01010005006001600055",
                "nonce" : "0x00",
                "storage" : {
                }
            },
            "0xd94f5374fce5edbc8e2a8697c15331677e6ebf0b" : {
                "balance" : "0x00",
                "code" : "0xefcafe010100050200050060016000556001600155",
                "nonce" : "0x00",
                "storage" : {
                }
            }
        },
        "transaction" : {
            "data" : [
                "0xc94f5374fce5edbc8e2a8697c15331677e6ebf0b",
                "0xd94f5374fce5edbc8e2a8697c15331677e6ebf0b"
            ],
            "gasPrice" : "0x0a",
            "gasLimit" : [
                "0x0aae60"
            ],
            "nonce" : "0x00",
            "secretKey" : "0x45a915e4d060149eb4365960e6a7a45f334393093061116b197e3240065ff2d8",
            "to" : "0xb94f5374fce5edbc8e2a8697c15331677e6ebf0b",
            "value" : [
                "0x00"
            ]
        }
    }
}